{
  "_format": "hh-sol-artifact-1",
  "contractName": "Dsocialapp",
  "sourceName": "contracts/Dsocialapp.sol",
  "abi": [
    {
      "inputs": [],
      "stateMutability": "nonpayable",
      "type": "constructor"
    },
    {
      "anonymous": false,
      "inputs": [
        {
          "indexed": true,
          "internalType": "address",
          "name": "owner",
          "type": "address"
        },
        {
          "indexed": true,
          "internalType": "address",
          "name": "approved",
          "type": "address"
        },
        {
          "indexed": true,
          "internalType": "uint256",
          "name": "tokenId",
          "type": "uint256"
        }
      ],
      "name": "Approval",
      "type": "event"
    },
    {
      "anonymous": false,
      "inputs": [
        {
          "indexed": true,
          "internalType": "address",
          "name": "owner",
          "type": "address"
        },
        {
          "indexed": true,
          "internalType": "address",
          "name": "operator",
          "type": "address"
        },
        {
          "indexed": false,
          "internalType": "bool",
          "name": "approved",
          "type": "bool"
        }
      ],
      "name": "ApprovalForAll",
      "type": "event"
    },
    {
      "anonymous": false,
      "inputs": [
        {
          "indexed": false,
          "internalType": "uint256",
          "name": "id",
          "type": "uint256"
        },
        {
          "indexed": false,
          "internalType": "string",
          "name": "hash",
          "type": "string"
        },
        {
          "indexed": false,
          "internalType": "string",
          "name": "mediaHash",
          "type": "string"
        },
        {
          "indexed": false,
          "internalType": "string",
          "name": "fileType",
          "type": "string"
        },
        {
          "indexed": false,
          "internalType": "uint256",
          "name": "tipAmount",
          "type": "uint256"
        },
        {
          "indexed": false,
          "internalType": "address payable",
          "name": "author",
          "type": "address"
        }
      ],
      "name": "PostCreated",
      "type": "event"
    },
    {
      "anonymous": false,
      "inputs": [
        {
          "indexed": false,
          "internalType": "uint256",
          "name": "id",
          "type": "uint256"
        },
        {
          "indexed": false,
          "internalType": "string",
          "name": "hash",
          "type": "string"
        },
        {
          "indexed": false,
          "internalType": "string",
          "name": "mediaHash",
          "type": "string"
        },
        {
          "indexed": false,
          "internalType": "string",
          "name": "fileType",
          "type": "string"
        },
        {
          "indexed": false,
          "internalType": "uint256",
          "name": "tipAmount",
          "type": "uint256"
        },
        {
          "indexed": false,
          "internalType": "address payable",
          "name": "author",
          "type": "address"
        }
      ],
      "name": "PostTipped",
      "type": "event"
    },
    {
      "anonymous": false,
      "inputs": [
        {
          "indexed": true,
          "internalType": "address",
          "name": "from",
          "type": "address"
        },
        {
          "indexed": true,
          "internalType": "address",
          "name": "to",
          "type": "address"
        },
        {
          "indexed": true,
          "internalType": "uint256",
          "name": "tokenId",
          "type": "uint256"
        }
      ],
      "name": "Transfer",
      "type": "event"
    },
    {
      "inputs": [
        {
          "internalType": "address",
          "name": "to",
          "type": "address"
        },
        {
          "internalType": "uint256",
          "name": "tokenId",
          "type": "uint256"
        }
      ],
      "name": "approve",
      "outputs": [],
      "stateMutability": "nonpayable",
      "type": "function"
    },
    {
      "inputs": [
        {
          "internalType": "address",
          "name": "owner",
          "type": "address"
        }
      ],
      "name": "balanceOf",
      "outputs": [
        {
          "internalType": "uint256",
          "name": "",
          "type": "uint256"
        }
      ],
      "stateMutability": "view",
      "type": "function"
    },
    {
      "inputs": [
        {
          "internalType": "uint256",
          "name": "_id",
          "type": "uint256"
        }
      ],
      "name": "deletePost",
      "outputs": [],
      "stateMutability": "nonpayable",
      "type": "function"
    },
    {
      "inputs": [],
      "name": "getAllPosts",
      "outputs": [
        {
          "components": [
            {
              "internalType": "uint256",
              "name": "id",
              "type": "uint256"
            },
            {
              "internalType": "string",
              "name": "hash",
              "type": "string"
            },
            {
              "internalType": "string",
              "name": "mediaHash",
              "type": "string"
            },
            {
              "internalType": "string",
              "name": "fileType",
              "type": "string"
            },
            {
              "internalType": "uint256",
              "name": "tipAmount",
              "type": "uint256"
            },
            {
              "internalType": "address payable",
              "name": "author",
              "type": "address"
            },
            {
              "internalType": "bool",
              "name": "isDeleted",
              "type": "bool"
            }
          ],
          "internalType": "struct Dsocialapp.Post[]",
          "name": "_posts",
          "type": "tuple[]"
        }
      ],
      "stateMutability": "view",
      "type": "function"
    },
    {
      "inputs": [
        {
          "internalType": "uint256",
          "name": "tokenId",
          "type": "uint256"
        }
      ],
      "name": "getApproved",
      "outputs": [
        {
          "internalType": "address",
          "name": "",
          "type": "address"
        }
      ],
      "stateMutability": "view",
      "type": "function"
    },
    {
      "inputs": [],
      "name": "getMyProfiles",
      "outputs": [
        {
          "internalType": "uint256[]",
          "name": "_ids",
          "type": "uint256[]"
        }
      ],
      "stateMutability": "view",
      "type": "function"
    },
    {
      "inputs": [
        {
          "internalType": "address",
          "name": "owner",
          "type": "address"
        },
        {
          "internalType": "address",
          "name": "operator",
          "type": "address"
        }
      ],
      "name": "isApprovedForAll",
      "outputs": [
        {
          "internalType": "bool",
          "name": "",
          "type": "bool"
        }
      ],
      "stateMutability": "view",
      "type": "function"
    },
    {
      "inputs": [
        {
          "internalType": "string",
          "name": "_tokenURI",
          "type": "string"
        }
      ],
      "name": "mint",
      "outputs": [
        {
          "internalType": "uint256",
          "name": "",
          "type": "uint256"
        }
      ],
      "stateMutability": "nonpayable",
      "type": "function"
    },
    {
      "inputs": [],
      "name": "name",
      "outputs": [
        {
          "internalType": "string",
          "name": "",
          "type": "string"
        }
      ],
      "stateMutability": "view",
      "type": "function"
    },
    {
      "inputs": [
        {
          "internalType": "uint256",
          "name": "tokenId",
          "type": "uint256"
        }
      ],
      "name": "ownerOf",
      "outputs": [
        {
          "internalType": "address",
          "name": "",
          "type": "address"
        }
      ],
      "stateMutability": "view",
      "type": "function"
    },
    {
      "inputs": [],
      "name": "postCount",
      "outputs": [
        {
          "internalType": "uint256",
          "name": "",
          "type": "uint256"
        }
      ],
      "stateMutability": "view",
      "type": "function"
    },
    {
      "inputs": [
        {
          "internalType": "uint256",
          "name": "",
          "type": "uint256"
        }
      ],
      "name": "posts",
      "outputs": [
        {
          "internalType": "uint256",
          "name": "id",
          "type": "uint256"
        },
        {
          "internalType": "string",
          "name": "hash",
          "type": "string"
        },
        {
          "internalType": "string",
          "name": "mediaHash",
          "type": "string"
        },
        {
          "internalType": "string",
          "name": "fileType",
          "type": "string"
        },
        {
          "internalType": "uint256",
          "name": "tipAmount",
          "type": "uint256"
        },
        {
          "internalType": "address payable",
          "name": "author",
          "type": "address"
        },
        {
          "internalType": "bool",
          "name": "isDeleted",
          "type": "bool"
        }
      ],
      "stateMutability": "view",
      "type": "function"
    },
    {
      "inputs": [
        {
          "internalType": "address",
          "name": "",
          "type": "address"
        }
      ],
      "name": "profiles",
      "outputs": [
        {
          "internalType": "uint256",
          "name": "",
          "type": "uint256"
        }
      ],
      "stateMutability": "view",
      "type": "function"
    },
    {
      "inputs": [
        {
          "internalType": "address",
          "name": "from",
          "type": "address"
        },
        {
          "internalType": "address",
          "name": "to",
          "type": "address"
        },
        {
          "internalType": "uint256",
          "name": "tokenId",
          "type": "uint256"
        }
      ],
      "name": "safeTransferFrom",
      "outputs": [],
      "stateMutability": "nonpayable",
      "type": "function"
    },
    {
      "inputs": [
        {
          "internalType": "address",
          "name": "from",
          "type": "address"
        },
        {
          "internalType": "address",
          "name": "to",
          "type": "address"
        },
        {
          "internalType": "uint256",
          "name": "tokenId",
          "type": "uint256"
        },
        {
          "internalType": "bytes",
          "name": "_data",
          "type": "bytes"
        }
      ],
      "name": "safeTransferFrom",
      "outputs": [],
      "stateMutability": "nonpayable",
      "type": "function"
    },
    {
      "inputs": [
        {
          "internalType": "address",
          "name": "operator",
          "type": "address"
        },
        {
          "internalType": "bool",
          "name": "approved",
          "type": "bool"
        }
      ],
      "name": "setApprovalForAll",
      "outputs": [],
      "stateMutability": "nonpayable",
      "type": "function"
    },
    {
      "inputs": [
        {
          "internalType": "uint256",
          "name": "_id",
          "type": "uint256"
        }
      ],
      "name": "setProfile",
      "outputs": [],
      "stateMutability": "nonpayable",
      "type": "function"
    },
    {
      "inputs": [
        {
          "internalType": "bytes4",
          "name": "interfaceId",
          "type": "bytes4"
        }
      ],
      "name": "supportsInterface",
      "outputs": [
        {
          "internalType": "bool",
          "name": "",
          "type": "bool"
        }
      ],
      "stateMutability": "view",
      "type": "function"
    },
    {
      "inputs": [],
      "name": "symbol",
      "outputs": [
        {
          "internalType": "string",
          "name": "",
          "type": "string"
        }
      ],
      "stateMutability": "view",
      "type": "function"
    },
    {
      "inputs": [
        {
          "internalType": "uint256",
          "name": "_id",
          "type": "uint256"
        }
      ],
      "name": "tipPostOwner",
      "outputs": [],
      "stateMutability": "payable",
      "type": "function"
    },
    {
      "inputs": [],
      "name": "tokenCount",
      "outputs": [
        {
          "internalType": "uint256",
          "name": "",
          "type": "uint256"
        }
      ],
      "stateMutability": "view",
      "type": "function"
    },
    {
      "inputs": [
        {
          "internalType": "uint256",
          "name": "tokenId",
          "type": "uint256"
        }
      ],
      "name": "tokenURI",
      "outputs": [
        {
          "internalType": "string",
          "name": "",
          "type": "string"
        }
      ],
      "stateMutability": "view",
      "type": "function"
    },
    {
      "inputs": [
        {
          "internalType": "address",
          "name": "from",
          "type": "address"
        },
        {
          "internalType": "address",
          "name": "to",
          "type": "address"
        },
        {
          "internalType": "uint256",
          "name": "tokenId",
          "type": "uint256"
        }
      ],
      "name": "transferFrom",
      "outputs": [],
      "stateMutability": "nonpayable",
      "type": "function"
    },
    {
      "inputs": [
        {
          "internalType": "string",
          "name": "_postHash",
          "type": "string"
        },
        {
          "internalType": "string",
          "name": "_mediaHash",
          "type": "string"
        },
        {
          "internalType": "string",
          "name": "_fileType",
          "type": "string"
        }
      ],
      "name": "uploadPost",
      "outputs": [],
      "stateMutability": "nonpayable",
      "type": "function"
    }
  ],
  "bytecode": "0x60806040523480156200001157600080fd5b506040518060400160405280600a81526020017f44736f6369616c617070000000000000000000000000000000000000000000008152506040518060400160405280600481526020017f4441505000000000000000000000000000000000000000000000000000000000815250816000908051906020019062000096929190620000b8565b508060019080519060200190620000af929190620000b8565b505050620001cd565b828054620000c69062000168565b90600052602060002090601f016020900481019282620000ea576000855562000136565b82601f106200010557805160ff191683800117855562000136565b8280016001018555821562000136579182015b828111156200013557825182559160200191906001019062000118565b5b50905062000145919062000149565b5090565b5b80821115620001645760008160009055506001016200014a565b5090565b600060028204905060018216806200018157607f821691505b602082108114156200019857620001976200019e565b5b50919050565b7f4e487b7100000000000000000000000000000000000000000000000000000000600052602260045260246000fd5b6148ed80620001dd6000396000f3fe60806040526004361061014b5760003560e01c806370a08231116100b6578063b88d4fde1161006f578063b88d4fde146104a8578063bbe15627146104d1578063c87b56dd1461050e578063d6313c061461054b578063d85d3d2714610567578063e985e9c5146105a45761014b565b806370a082311461039857806385d3cb37146103d557806395d89b41146103fe5780639f181b5e14610429578063a22cb46514610454578063adb04cf81461047d5761014b565b806317906c2e1161010857806317906c2e1461028a57806323b872dd146102b557806330561100146102de57806342842e0e146103095780636352211e146103325780636e4d2b751461036f5761014b565b806301ffc9a71461015057806306fdde031461018d578063081812fc146101b8578063094cd5ee146101f5578063095ea7b31461021e5780630b1e7f8314610247575b600080fd5b34801561015c57600080fd5b5061017760048036038101906101729190613064565b6105e1565b60405161018491906138cb565b60405180910390f35b34801561019957600080fd5b506101a26106c3565b6040516101af91906138e6565b60405180910390f35b3480156101c457600080fd5b506101df60048036038101906101da919061318e565b610755565b6040516101ec9190613820565b60405180910390f35b34801561020157600080fd5b5061021c6004803603810190610217919061318e565b6107da565b005b34801561022a57600080fd5b5061024560048036038101906102409190613028565b6108f5565b005b34801561025357600080fd5b5061026e6004803603810190610269919061318e565b610a0d565b6040516102819796959493929190613d0f565b60405180910390f35b34801561029657600080fd5b5061029f610c14565b6040516102ac9190613c08565b60405180910390f35b3480156102c157600080fd5b506102dc60048036038101906102d79190612f22565b610c1a565b005b3480156102ea57600080fd5b506102f3610c7a565b6040516103009190613887565b60405180910390f35b34801561031557600080fd5b50610330600480360381019061032b9190612f22565b611053565b005b34801561033e57600080fd5b506103596004803603810190610354919061318e565b611073565b6040516103669190613820565b60405180910390f35b34801561037b57600080fd5b50610396600480360381019061039191906130f7565b611125565b005b3480156103a457600080fd5b506103bf60048036038101906103ba9190612ebd565b611410565b6040516103cc9190613c08565b60405180910390f35b3480156103e157600080fd5b506103fc60048036038101906103f7919061318e565b6114c8565b005b34801561040a57600080fd5b50610413611585565b60405161042091906138e6565b60405180910390f35b34801561043557600080fd5b5061043e611617565b60405161044b9190613c08565b60405180910390f35b34801561046057600080fd5b5061047b60048036038101906104769190612fec565b61161d565b005b34801561048957600080fd5b50610492611633565b60405161049f91906138a9565b60405180910390f35b3480156104b457600080fd5b506104cf60048036038101906104ca9190612f71565b611783565b005b3480156104dd57600080fd5b506104f860048036038101906104f39190612ebd565b6117e5565b6040516105059190613c08565b60405180910390f35b34801561051a57600080fd5b506105356004803603810190610530919061318e565b6117fd565b60405161054291906138e6565b60405180910390f35b6105656004803603810190610560919061318e565b61194f565b005b34801561057357600080fd5b5061058e600480360381019061058991906130b6565b611e16565b60405161059b9190613c08565b60405180910390f35b3480156105b057600080fd5b506105cb60048036038101906105c69190612ee6565b611e5d565b6040516105d891906138cb565b60405180910390f35b60007f80ac58cd000000000000000000000000000000000000000000000000000000007bffffffffffffffffffffffffffffffffffffffffffffffffffffffff1916827bffffffffffffffffffffffffffffffffffffffffffffffffffffffff191614806106ac57507f5b5e139f000000000000000000000000000000000000000000000000000000007bffffffffffffffffffffffffffffffffffffffffffffffffffffffff1916827bffffffffffffffffffffffffffffffffffffffffffffffffffffffff1916145b806106bc57506106bb82611ef1565b5b9050919050565b6060600080546106d29061409f565b80601f01602080910402602001604051908101604052809291908181526020018280546106fe9061409f565b801561074b5780601f106107205761010080835404028352916020019161074b565b820191906000526020600020905b81548152906001019060200180831161072e57829003601f168201915b5050505050905090565b600061076082611f5b565b61079f576040517f08c379a000000000000000000000000000000000000000000000000000000000815260040161079690613b28565b60405180910390fd5b6004600083815260200190815260200160002060009054906101000a900473ffffffffffffffffffffffffffffffffffffffff169050919050565b6000811180156107ec57506008548111155b61082b576040517f08c379a000000000000000000000000000000000000000000000000000000000815260040161082290613ac8565b60405180910390fd5b60006009600083815260200190815260200160002090503373ffffffffffffffffffffffffffffffffffffffff168160050160009054906101000a900473ffffffffffffffffffffffffffffffffffffffff1673ffffffffffffffffffffffffffffffffffffffff16146108d4576040517f08c379a00000000000000000000000000000000000000000000000000000000081526004016108cb90613908565b60405180910390fd5b60018160050160146101000a81548160ff0219169083151502179055505050565b600061090082611073565b90508073ffffffffffffffffffffffffffffffffffffffff168373ffffffffffffffffffffffffffffffffffffffff161415610971576040517f08c379a000000000000000000000000000000000000000000000000000000000815260040161096890613b88565b60405180910390fd5b8073ffffffffffffffffffffffffffffffffffffffff16610990611fc7565b73ffffffffffffffffffffffffffffffffffffffff1614806109bf57506109be816109b9611fc7565b611e5d565b5b6109fe576040517f08c379a00000000000000000000000000000000000000000000000000000000081526004016109f590613a08565b60405180910390fd5b610a088383611fcf565b505050565b6009602052806000526040600020600091509050806000015490806001018054610a369061409f565b80601f0160208091040260200160405190810160405280929190818152602001828054610a629061409f565b8015610aaf5780601f10610a8457610100808354040283529160200191610aaf565b820191906000526020600020905b815481529060010190602001808311610a9257829003601f168201915b505050505090806002018054610ac49061409f565b80601f0160208091040260200160405190810160405280929190818152602001828054610af09061409f565b8015610b3d5780601f10610b1257610100808354040283529160200191610b3d565b820191906000526020600020905b815481529060010190602001808311610b2057829003601f168201915b505050505090806003018054610b529061409f565b80601f0160208091040260200160405190810160405280929190818152602001828054610b7e9061409f565b8015610bcb5780601f10610ba057610100808354040283529160200191610bcb565b820191906000526020600020905b815481529060010190602001808311610bae57829003601f168201915b5050505050908060040154908060050160009054906101000a900473ffffffffffffffffffffffffffffffffffffffff16908060050160149054906101000a900460ff16905087565b60085481565b610c2b610c25611fc7565b82612088565b610c6a576040517f08c379a0000000000000000000000000000000000000000000000000000000008152600401610c6190613bc8565b60405180910390fd5b610c75838383612166565b505050565b6060600080600190505b6008548111610cd7576009600082815260200190815260200160002060050160149054906101000a900460ff16610cc4578180610cc090614102565b9250505b8080610ccf90614102565b915050610c84565b508067ffffffffffffffff811115610d18577f4e487b7100000000000000000000000000000000000000000000000000000000600052604160045260246000fd5b604051908082528060200260200182016040528015610d5157816020015b610d3e612c8c565b815260200190600190039081610d365790505b50915060008060085490505b600081111561104d576009600082815260200190815260200160002060050160149054906101000a900460ff1661103a57600960008281526020019081526020016000206040518060e001604052908160008201548152602001600182018054610dc69061409f565b80601f0160208091040260200160405190810160405280929190818152602001828054610df29061409f565b8015610e3f5780601f10610e1457610100808354040283529160200191610e3f565b820191906000526020600020905b815481529060010190602001808311610e2257829003601f168201915b50505050508152602001600282018054610e589061409f565b80601f0160208091040260200160405190810160405280929190818152602001828054610e849061409f565b8015610ed15780601f10610ea657610100808354040283529160200191610ed1565b820191906000526020600020905b815481529060010190602001808311610eb457829003601f168201915b50505050508152602001600382018054610eea9061409f565b80601f0160208091040260200160405190810160405280929190818152602001828054610f169061409f565b8015610f635780601f10610f3857610100808354040283529160200191610f63565b820191906000526020600020905b815481529060010190602001808311610f4657829003601f168201915b50505050508152602001600482015481526020016005820160009054906101000a900473ffffffffffffffffffffffffffffffffffffffff1673ffffffffffffffffffffffffffffffffffffffff1673ffffffffffffffffffffffffffffffffffffffff1681526020016005820160149054906101000a900460ff161515151581525050848381518110611020577f4e487b7100000000000000000000000000000000000000000000000000000000600052603260045260246000fd5b6020026020010181905250818061103690614102565b9250505b808061104590614075565b915050610d5d565b50505090565b61106e83838360405180602001604052806000815250611783565b505050565b6000806002600084815260200190815260200160002060009054906101000a900473ffffffffffffffffffffffffffffffffffffffff169050600073ffffffffffffffffffffffffffffffffffffffff168173ffffffffffffffffffffffffffffffffffffffff16141561111c576040517f08c379a000000000000000000000000000000000000000000000000000000000815260040161111390613a88565b60405180910390fd5b80915050919050565b600061113033611410565b11611170576040517f08c379a000000000000000000000000000000000000000000000000000000000815260040161116790613988565b60405180910390fd5b60008351116111b4576040517f08c379a00000000000000000000000000000000000000000000000000000000081526004016111ab90613b48565b60405180910390fd5b60008251116111f8576040517f08c379a00000000000000000000000000000000000000000000000000000000081526004016111ef90613a48565b60405180910390fd5b600081511161123c576040517f08c379a000000000000000000000000000000000000000000000000000000000815260040161123390613be8565b60405180910390fd5b600073ffffffffffffffffffffffffffffffffffffffff163373ffffffffffffffffffffffffffffffffffffffff16141561127657600080fd5b6008600081548092919061128990614102565b91905055506040518060e001604052806008548152602001848152602001838152602001828152602001600081526020013373ffffffffffffffffffffffffffffffffffffffff16815260200160001515815250600960006008548152602001908152602001600020600082015181600001556020820151816001019080519060200190611318929190612ce1565b506040820151816002019080519060200190611335929190612ce1565b506060820151816003019080519060200190611352929190612ce1565b506080820151816004015560a08201518160050160006101000a81548173ffffffffffffffffffffffffffffffffffffffff021916908373ffffffffffffffffffffffffffffffffffffffff16021790555060c08201518160050160146101000a81548160ff0219169083151502179055509050507f6dbf8011652ab6c578094a9a71e68b3aaa229e9556ac1da8264c9f191aac239560085484848460003360405161140396959493929190613c23565b60405180910390a1505050565b60008073ffffffffffffffffffffffffffffffffffffffff168273ffffffffffffffffffffffffffffffffffffffff161415611481576040517f08c379a000000000000000000000000000000000000000000000000000000000815260040161147890613a68565b60405180910390fd5b600360008373ffffffffffffffffffffffffffffffffffffffff1673ffffffffffffffffffffffffffffffffffffffff168152602001908152602001600020549050919050565b3373ffffffffffffffffffffffffffffffffffffffff166114e882611073565b73ffffffffffffffffffffffffffffffffffffffff161461153e576040517f08c379a000000000000000000000000000000000000000000000000000000000815260040161153590613a28565b60405180910390fd5b80600a60003373ffffffffffffffffffffffffffffffffffffffff1673ffffffffffffffffffffffffffffffffffffffff1681526020019081526020016000208190555050565b6060600180546115949061409f565b80601f01602080910402602001604051908101604052809291908181526020018280546115c09061409f565b801561160d5780601f106115e25761010080835404028352916020019161160d565b820191906000526020600020905b8154815290600101906020018083116115f057829003601f168201915b5050505050905090565b60075481565b61162f611628611fc7565b83836123cd565b5050565b606061163e33611410565b67ffffffffffffffff81111561167d577f4e487b7100000000000000000000000000000000000000000000000000000000600052604160045260246000fd5b6040519080825280602002602001820160405280156116ab5781602001602082028036833780820191505090505b509050600080600754905060005b8181101561177d573373ffffffffffffffffffffffffffffffffffffffff166116ed6001836116e89190613ee0565b611073565b73ffffffffffffffffffffffffffffffffffffffff16141561176a576001816117169190613ee0565b84848151811061174f577f4e487b7100000000000000000000000000000000000000000000000000000000600052603260045260246000fd5b602002602001018181525050828061176690614102565b9350505b808061177590614102565b9150506116b9565b50505090565b61179461178e611fc7565b83612088565b6117d3576040517f08c379a00000000000000000000000000000000000000000000000000000000081526004016117ca90613bc8565b60405180910390fd5b6117df8484848461253a565b50505050565b600a6020528060005260406000206000915090505481565b606061180882611f5b565b611847576040517f08c379a000000000000000000000000000000000000000000000000000000000815260040161183e90613b08565b60405180910390fd5b60006006600084815260200190815260200160002080546118679061409f565b80601f01602080910402602001604051908101604052809291908181526020018280546118939061409f565b80156118e05780601f106118b5576101008083540402835291602001916118e0565b820191906000526020600020905b8154815290600101906020018083116118c357829003601f168201915b5050505050905060006118f1612596565b905060008151141561190757819250505061194a565b60008251111561193c5780826040516020016119249291906137fc565b6040516020818303038152906040529250505061194a565b611945846125ad565b925050505b919050565b60008111801561196157506008548111155b6119a0576040517f08c379a000000000000000000000000000000000000000000000000000000000815260040161199790613ac8565b60405180910390fd5b6000600960008381526020019081526020016000206040518060e0016040529081600082015481526020016001820180546119da9061409f565b80601f0160208091040260200160405190810160405280929190818152602001828054611a069061409f565b8015611a535780601f10611a2857610100808354040283529160200191611a53565b820191906000526020600020905b815481529060010190602001808311611a3657829003601f168201915b50505050508152602001600282018054611a6c9061409f565b80601f0160208091040260200160405190810160405280929190818152602001828054611a989061409f565b8015611ae55780601f10611aba57610100808354040283529160200191611ae5565b820191906000526020600020905b815481529060010190602001808311611ac857829003601f168201915b50505050508152602001600382018054611afe9061409f565b80601f0160208091040260200160405190810160405280929190818152602001828054611b2a9061409f565b8015611b775780601f10611b4c57610100808354040283529160200191611b77565b820191906000526020600020905b815481529060010190602001808311611b5a57829003601f168201915b50505050508152602001600482015481526020016005820160009054906101000a900473ffffffffffffffffffffffffffffffffffffffff1673ffffffffffffffffffffffffffffffffffffffff1673ffffffffffffffffffffffffffffffffffffffff1681526020016005820160149054906101000a900460ff16151515158152505090503373ffffffffffffffffffffffffffffffffffffffff168160a0015173ffffffffffffffffffffffffffffffffffffffff161415611c70576040517f08c379a0000000000000000000000000000000000000000000000000000000008152600401611c6790613ba8565b60405180910390fd5b8060a0015173ffffffffffffffffffffffffffffffffffffffff166108fc349081150290604051600060405180830381858888f19350505050158015611cba573d6000803e3d6000fd5b503481608001818151611ccd9190613ee0565b915081815250508060096000848152602001908152602001600020600082015181600001556020820151816001019080519060200190611d0e929190612ce1565b506040820151816002019080519060200190611d2b929190612ce1565b506060820151816003019080519060200190611d48929190612ce1565b506080820151816004015560a08201518160050160006101000a81548173ffffffffffffffffffffffffffffffffffffffff021916908373ffffffffffffffffffffffffffffffffffffffff16021790555060c08201518160050160146101000a81548160ff0219169083151502179055509050507fe95f1d6bffe23e6139931bcdea8097548a1f20522ae5801a84d177ee798185508282602001518360400151846060015185608001518660a00151604051611e0a96959493929190613c99565b60405180910390a15050565b600060076000815480929190611e2b90614102565b9190505550611e3c33600754612654565b611e4860075483612672565b611e536007546114c8565b6007549050919050565b6000600560008473ffffffffffffffffffffffffffffffffffffffff1673ffffffffffffffffffffffffffffffffffffffff16815260200190815260200160002060008373ffffffffffffffffffffffffffffffffffffffff1673ffffffffffffffffffffffffffffffffffffffff16815260200190815260200160002060009054906101000a900460ff16905092915050565b60007f01ffc9a7000000000000000000000000000000000000000000000000000000007bffffffffffffffffffffffffffffffffffffffffffffffffffffffff1916827bffffffffffffffffffffffffffffffffffffffffffffffffffffffff1916149050919050565b60008073ffffffffffffffffffffffffffffffffffffffff166002600084815260200190815260200160002060009054906101000a900473ffffffffffffffffffffffffffffffffffffffff1673ffffffffffffffffffffffffffffffffffffffff1614159050919050565b600033905090565b816004600083815260200190815260200160002060006101000a81548173ffffffffffffffffffffffffffffffffffffffff021916908373ffffffffffffffffffffffffffffffffffffffff160217905550808273ffffffffffffffffffffffffffffffffffffffff1661204283611073565b73ffffffffffffffffffffffffffffffffffffffff167f8c5be1e5ebec7d5bd14f71427d1e84f3dd0314c0f7b2291e5b200ac8c7c3b92560405160405180910390a45050565b600061209382611f5b565b6120d2576040517f08c379a00000000000000000000000000000000000000000000000000000000081526004016120c9906139e8565b60405180910390fd5b60006120dd83611073565b90508073ffffffffffffffffffffffffffffffffffffffff168473ffffffffffffffffffffffffffffffffffffffff16148061214c57508373ffffffffffffffffffffffffffffffffffffffff1661213484610755565b73ffffffffffffffffffffffffffffffffffffffff16145b8061215d575061215c8185611e5d565b5b91505092915050565b8273ffffffffffffffffffffffffffffffffffffffff1661218682611073565b73ffffffffffffffffffffffffffffffffffffffff16146121dc576040517f08c379a00000000000000000000000000000000000000000000000000000000081526004016121d390613948565b60405180910390fd5b600073ffffffffffffffffffffffffffffffffffffffff168273ffffffffffffffffffffffffffffffffffffffff16141561224c576040517f08c379a0000000000000000000000000000000000000000000000000000000008152600401612243906139a8565b60405180910390fd5b6122578383836126e6565b612262600082611fcf565b6001600360008573ffffffffffffffffffffffffffffffffffffffff1673ffffffffffffffffffffffffffffffffffffffff16815260200190815260200160002060008282546122b29190613f67565b925050819055506001600360008473ffffffffffffffffffffffffffffffffffffffff1673ffffffffffffffffffffffffffffffffffffffff16815260200190815260200160002060008282546123099190613ee0565b92505081905550816002600083815260200190815260200160002060006101000a81548173ffffffffffffffffffffffffffffffffffffffff021916908373ffffffffffffffffffffffffffffffffffffffff160217905550808273ffffffffffffffffffffffffffffffffffffffff168473ffffffffffffffffffffffffffffffffffffffff167fddf252ad1be2c89b69c2b068fc378daa952ba7f163c4a11628f55a4df523b3ef60405160405180910390a46123c88383836126eb565b505050565b8173ffffffffffffffffffffffffffffffffffffffff168373ffffffffffffffffffffffffffffffffffffffff16141561243c576040517f08c379a0000000000000000000000000000000000000000000000000000000008152600401612433906139c8565b60405180910390fd5b80600560008573ffffffffffffffffffffffffffffffffffffffff1673ffffffffffffffffffffffffffffffffffffffff16815260200190815260200160002060008473ffffffffffffffffffffffffffffffffffffffff1673ffffffffffffffffffffffffffffffffffffffff16815260200190815260200160002060006101000a81548160ff0219169083151502179055508173ffffffffffffffffffffffffffffffffffffffff168373ffffffffffffffffffffffffffffffffffffffff167f17307eab39ab6107e8899845ad3d59bd9653f200f220920489ca2b5937696c318360405161252d91906138cb565b60405180910390a3505050565b612545848484612166565b612551848484846126f0565b612590576040517f08c379a000000000000000000000000000000000000000000000000000000000815260040161258790613928565b60405180910390fd5b50505050565b606060405180602001604052806000815250905090565b60606125b882611f5b565b6125f7576040517f08c379a00000000000000000000000000000000000000000000000000000000081526004016125ee90613b68565b60405180910390fd5b6000612601612596565b90506000815111612621576040518060200160405280600081525061264c565b8061262b84612887565b60405160200161263c9291906137fc565b6040516020818303038152906040525b915050919050565b61266e828260405180602001604052806000815250612a34565b5050565b61267b82611f5b565b6126ba576040517f08c379a00000000000000000000000000000000000000000000000000000000081526004016126b190613aa8565b60405180910390fd5b806006600084815260200190815260200160002090805190602001906126e1929190612ce1565b505050565b505050565b505050565b60006127118473ffffffffffffffffffffffffffffffffffffffff16612a8f565b1561287a578373ffffffffffffffffffffffffffffffffffffffff1663150b7a0261273a611fc7565b8786866040518563ffffffff1660e01b815260040161275c949392919061383b565b602060405180830381600087803b15801561277657600080fd5b505af19250505080156127a757506040513d601f19601f820116820180604052508101906127a4919061308d565b60015b61282a573d80600081146127d7576040519150601f19603f3d011682016040523d82523d6000602084013e6127dc565b606091505b50600081511415612822576040517f08c379a000000000000000000000000000000000000000000000000000000000815260040161281990613928565b60405180910390fd5b805181602001fd5b63150b7a0260e01b7bffffffffffffffffffffffffffffffffffffffffffffffffffffffff1916817bffffffffffffffffffffffffffffffffffffffffffffffffffffffff19161491505061287f565b600190505b949350505050565b606060008214156128cf576040518060400160405280600181526020017f30000000000000000000000000000000000000000000000000000000000000008152509050612a2f565b600082905060005b600082146129015780806128ea90614102565b915050600a826128fa9190613f36565b91506128d7565b60008167ffffffffffffffff811115612943577f4e487b7100000000000000000000000000000000000000000000000000000000600052604160045260246000fd5b6040519080825280601f01601f1916602001820160405280156129755781602001600182028036833780820191505090505b5090505b60008514612a285760018261298e9190613f67565b9150600a8561299d919061414b565b60306129a99190613ee0565b60f81b8183815181106129e5577f4e487b7100000000000000000000000000000000000000000000000000000000600052603260045260246000fd5b60200101907effffffffffffffffffffffffffffffffffffffffffffffffffffffffffffff1916908160001a905350600a85612a219190613f36565b9450612979565b8093505050505b919050565b612a3e8383612ab2565b612a4b60008484846126f0565b612a8a576040517f08c379a0000000000000000000000000000000000000000000000000000000008152600401612a8190613928565b60405180910390fd5b505050565b6000808273ffffffffffffffffffffffffffffffffffffffff163b119050919050565b600073ffffffffffffffffffffffffffffffffffffffff168273ffffffffffffffffffffffffffffffffffffffff161415612b22576040517f08c379a0000000000000000000000000000000000000000000000000000000008152600401612b1990613ae8565b60405180910390fd5b612b2b81611f5b565b15612b6b576040517f08c379a0000000000000000000000000000000000000000000000000000000008152600401612b6290613968565b60405180910390fd5b612b77600083836126e6565b6001600360008473ffffffffffffffffffffffffffffffffffffffff1673ffffffffffffffffffffffffffffffffffffffff1681526020019081526020016000206000828254612bc79190613ee0565b92505081905550816002600083815260200190815260200160002060006101000a81548173ffffffffffffffffffffffffffffffffffffffff021916908373ffffffffffffffffffffffffffffffffffffffff160217905550808273ffffffffffffffffffffffffffffffffffffffff16600073ffffffffffffffffffffffffffffffffffffffff167fddf252ad1be2c89b69c2b068fc378daa952ba7f163c4a11628f55a4df523b3ef60405160405180910390a4612c88600083836126eb565b5050565b6040518060e001604052806000815260200160608152602001606081526020016060815260200160008152602001600073ffffffffffffffffffffffffffffffffffffffff1681526020016000151581525090565b828054612ced9061409f565b90600052602060002090601f016020900481019282612d0f5760008555612d56565b82601f10612d2857805160ff1916838001178555612d56565b82800160010185558215612d56579182015b82811115612d55578251825591602001919060010190612d3a565b5b509050612d639190612d67565b5090565b5b80821115612d80576000816000905550600101612d68565b5090565b6000612d97612d9284613db8565b613d93565b905082815260208101848484011115612daf57600080fd5b612dba848285614033565b509392505050565b6000612dd5612dd084613de9565b613d93565b905082815260208101848484011115612ded57600080fd5b612df8848285614033565b509392505050565b600081359050612e0f8161485b565b92915050565b600081359050612e2481614872565b92915050565b600081359050612e3981614889565b92915050565b600081519050612e4e81614889565b92915050565b600082601f830112612e6557600080fd5b8135612e75848260208601612d84565b91505092915050565b600082601f830112612e8f57600080fd5b8135612e9f848260208601612dc2565b91505092915050565b600081359050612eb7816148a0565b92915050565b600060208284031215612ecf57600080fd5b6000612edd84828501612e00565b91505092915050565b60008060408385031215612ef957600080fd5b6000612f0785828601612e00565b9250506020612f1885828601612e00565b9150509250929050565b600080600060608486031215612f3757600080fd5b6000612f4586828701612e00565b9350506020612f5686828701612e00565b9250506040612f6786828701612ea8565b9150509250925092565b60008060008060808587031215612f8757600080fd5b6000612f9587828801612e00565b9450506020612fa687828801612e00565b9350506040612fb787828801612ea8565b925050606085013567ffffffffffffffff811115612fd457600080fd5b612fe087828801612e54565b91505092959194509250565b60008060408385031215612fff57600080fd5b600061300d85828601612e00565b925050602061301e85828601612e15565b9150509250929050565b6000806040838503121561303b57600080fd5b600061304985828601612e00565b925050602061305a85828601612ea8565b9150509250929050565b60006020828403121561307657600080fd5b600061308484828501612e2a565b91505092915050565b60006020828403121561309f57600080fd5b60006130ad84828501612e3f565b91505092915050565b6000602082840312156130c857600080fd5b600082013567ffffffffffffffff8111156130e257600080fd5b6130ee84828501612e7e565b91505092915050565b60008060006060848603121561310c57600080fd5b600084013567ffffffffffffffff81111561312657600080fd5b61313286828701612e7e565b935050602084013567ffffffffffffffff81111561314f57600080fd5b61315b86828701612e7e565b925050604084013567ffffffffffffffff81111561317857600080fd5b61318486828701612e7e565b9150509250925092565b6000602082840312156131a057600080fd5b60006131ae84828501612ea8565b91505092915050565b60006131c38383613734565b905092915050565b60006131d783836137de565b60208301905092915050565b6131ec81613fad565b82525050565b6131fb81613fad565b82525050565b61320a81613f9b565b82525050565b600061321b82613e3a565b6132258185613e80565b93508360208202850161323785613e1a565b8060005b85811015613273578484038952815161325485826131b7565b945061325f83613e66565b925060208a0199505060018101905061323b565b50829750879550505050505092915050565b600061329082613e45565b61329a8185613e91565b93506132a583613e2a565b8060005b838110156132d65781516132bd88826131cb565b97506132c883613e73565b9250506001810190506132a9565b5085935050505092915050565b6132ec81613fbf565b82525050565b6132fb81613fbf565b82525050565b600061330c82613e50565b6133168185613ea2565b9350613326818560208601614042565b61332f81614238565b840191505092915050565b61334381614021565b82525050565b600061335482613e5b565b61335e8185613eb3565b935061336e818560208601614042565b61337781614238565b840191505092915050565b600061338d82613e5b565b6133978185613ec4565b93506133a7818560208601614042565b6133b081614238565b840191505092915050565b60006133c682613e5b565b6133d08185613ed5565b93506133e0818560208601614042565b80840191505092915050565b60006133f9602383613ec4565b915061340482614249565b604082019050919050565b600061341c603283613ec4565b915061342782614298565b604082019050919050565b600061343f602583613ec4565b915061344a826142e7565b604082019050919050565b6000613462601c83613ec4565b915061346d82614336565b602082019050919050565b6000613485601a83613ec4565b91506134908261435f565b602082019050919050565b60006134a8602483613ec4565b91506134b382614388565b604082019050919050565b60006134cb601983613ec4565b91506134d6826143d7565b602082019050919050565b60006134ee602c83613ec4565b91506134f982614400565b604082019050919050565b6000613511603883613ec4565b915061351c8261444f565b604082019050919050565b6000613534603883613ec4565b915061353f8261449e565b604082019050919050565b6000613557601f83613ec4565b9150613562826144ed565b602082019050919050565b600061357a602a83613ec4565b915061358582614516565b604082019050919050565b600061359d602983613ec4565b91506135a882614565565b604082019050919050565b60006135c0602e83613ec4565b91506135cb826145b4565b604082019050919050565b60006135e3600f83613ec4565b91506135ee82614603565b602082019050919050565b6000613606602083613ec4565b91506136118261462c565b602082019050919050565b6000613629603183613ec4565b915061363482614655565b604082019050919050565b600061364c602c83613ec4565b9150613657826146a4565b604082019050919050565b600061366f601983613ec4565b915061367a826146f3565b602082019050919050565b6000613692602f83613ec4565b915061369d8261471c565b604082019050919050565b60006136b5602183613ec4565b91506136c08261476b565b604082019050919050565b60006136d8601883613ec4565b91506136e3826147ba565b602082019050919050565b60006136fb603183613ec4565b9150613706826147e3565b604082019050919050565b600061371e601e83613ec4565b915061372982614832565b602082019050919050565b600060e08301600083015161374c60008601826137de565b50602083015184820360208601526137648282613349565b9150506040830151848203604086015261377e8282613349565b915050606083015184820360608601526137988282613349565b91505060808301516137ad60808601826137de565b5060a08301516137c060a08601826131e3565b5060c08301516137d360c08601826132e3565b508091505092915050565b6137e781614017565b82525050565b6137f681614017565b82525050565b600061380882856133bb565b915061381482846133bb565b91508190509392505050565b60006020820190506138356000830184613201565b92915050565b60006080820190506138506000830187613201565b61385d6020830186613201565b61386a60408301856137ed565b818103606083015261387c8184613301565b905095945050505050565b600060208201905081810360008301526138a18184613210565b905092915050565b600060208201905081810360008301526138c38184613285565b905092915050565b60006020820190506138e060008301846132f2565b92915050565b600060208201905081810360008301526139008184613382565b905092915050565b60006020820190508181036000830152613921816133ec565b9050919050565b600060208201905081810360008301526139418161340f565b9050919050565b6000602082019050818103600083015261396181613432565b9050919050565b6000602082019050818103600083015261398181613455565b9050919050565b600060208201905081810360008301526139a181613478565b9050919050565b600060208201905081810360008301526139c18161349b565b9050919050565b600060208201905081810360008301526139e1816134be565b9050919050565b60006020820190508181036000830152613a01816134e1565b9050919050565b60006020820190508181036000830152613a2181613504565b9050919050565b60006020820190508181036000830152613a4181613527565b9050919050565b60006020820190508181036000830152613a618161354a565b9050919050565b60006020820190508181036000830152613a818161356d565b9050919050565b60006020820190508181036000830152613aa181613590565b9050919050565b60006020820190508181036000830152613ac1816135b3565b9050919050565b60006020820190508181036000830152613ae1816135d6565b9050919050565b60006020820190508181036000830152613b01816135f9565b9050919050565b60006020820190508181036000830152613b218161361c565b9050919050565b60006020820190508181036000830152613b418161363f565b9050919050565b60006020820190508181036000830152613b6181613662565b9050919050565b60006020820190508181036000830152613b8181613685565b9050919050565b60006020820190508181036000830152613ba1816136a8565b9050919050565b60006020820190508181036000830152613bc1816136cb565b9050919050565b60006020820190508181036000830152613be1816136ee565b9050919050565b60006020820190508181036000830152613c0181613711565b9050919050565b6000602082019050613c1d60008301846137ed565b92915050565b600060c082019050613c3860008301896137ed565b8181036020830152613c4a8188613382565b90508181036040830152613c5e8187613382565b90508181036060830152613c728186613382565b9050613c81608083018561333a565b613c8e60a08301846131f2565b979650505050505050565b600060c082019050613cae60008301896137ed565b8181036020830152613cc08188613382565b90508181036040830152613cd48187613382565b90508181036060830152613ce88186613382565b9050613cf760808301856137ed565b613d0460a08301846131f2565b979650505050505050565b600060e082019050613d24600083018a6137ed565b8181036020830152613d368189613382565b90508181036040830152613d4a8188613382565b90508181036060830152613d5e8187613382565b9050613d6d60808301866137ed565b613d7a60a08301856131f2565b613d8760c08301846132f2565b98975050505050505050565b6000613d9d613dae565b9050613da982826140d1565b919050565b6000604051905090565b600067ffffffffffffffff821115613dd357613dd2614209565b5b613ddc82614238565b9050602081019050919050565b600067ffffffffffffffff821115613e0457613e03614209565b5b613e0d82614238565b9050602081019050919050565b6000819050602082019050919050565b6000819050602082019050919050565b600081519050919050565b600081519050919050565b600081519050919050565b600081519050919050565b6000602082019050919050565b6000602082019050919050565b600082825260208201905092915050565b600082825260208201905092915050565b600082825260208201905092915050565b600082825260208201905092915050565b600082825260208201905092915050565b600081905092915050565b6000613eeb82614017565b9150613ef683614017565b9250827fffffffffffffffffffffffffffffffffffffffffffffffffffffffffffffffff03821115613f2b57613f2a61417c565b5b828201905092915050565b6000613f4182614017565b9150613f4c83614017565b925082613f5c57613f5b6141ab565b5b828204905092915050565b6000613f7282614017565b9150613f7d83614017565b925082821015613f9057613f8f61417c565b5b828203905092915050565b6000613fa682613ff7565b9050919050565b6000613fb882613ff7565b9050919050565b60008115159050919050565b60007fffffffff0000000000000000000000000000000000000000000000000000000082169050919050565b600073ffffffffffffffffffffffffffffffffffffffff82169050919050565b6000819050919050565b600061402c82614017565b9050919050565b82818337600083830152505050565b60005b83811015614060578082015181840152602081019050614045565b8381111561406f576000848401525b50505050565b600061408082614017565b915060008214156140945761409361417c565b5b600182039050919050565b600060028204905060018216806140b757607f821691505b602082108114156140cb576140ca6141da565b5b50919050565b6140da82614238565b810181811067ffffffffffffffff821117156140f9576140f8614209565b5b80604052505050565b600061410d82614017565b91507fffffffffffffffffffffffffffffffffffffffffffffffffffffffffffffffff8214156141405761413f61417c565b5b600182019050919050565b600061415682614017565b915061416183614017565b925082614171576141706141ab565b5b828206905092915050565b7f4e487b7100000000000000000000000000000000000000000000000000000000600052601160045260246000fd5b7f4e487b7100000000000000000000000000000000000000000000000000000000600052601260045260246000fd5b7f4e487b7100000000000000000000000000000000000000000000000000000000600052602260045260246000fd5b7f4e487b7100000000000000000000000000000000000000000000000000000000600052604160045260246000fd5b6000601f19601f8301169050919050565b7f596f7520617265206e6f742074686520617574686f72206f662074686973207060008201527f6f73740000000000000000000000000000000000000000000000000000000000602082015250565b7f4552433732313a207472616e7366657220746f206e6f6e20455243373231526560008201527f63656976657220696d706c656d656e7465720000000000000000000000000000602082015250565b7f4552433732313a207472616e736665722066726f6d20696e636f72726563742060008201527f6f776e6572000000000000000000000000000000000000000000000000000000602082015250565b7f4552433732313a20746f6b656e20616c7265616479206d696e74656400000000600082015250565b7f4d757374206f776e20612070726f66696c6520746f20706f7374000000000000600082015250565b7f4552433732313a207472616e7366657220746f20746865207a65726f2061646460008201527f7265737300000000000000000000000000000000000000000000000000000000602082015250565b7f4552433732313a20617070726f766520746f2063616c6c657200000000000000600082015250565b7f4552433732313a206f70657261746f7220717565727920666f72206e6f6e657860008201527f697374656e7420746f6b656e0000000000000000000000000000000000000000602082015250565b7f4552433732313a20617070726f76652063616c6c6572206973206e6f74206f7760008201527f6e6572206e6f7220617070726f76656420666f7220616c6c0000000000000000602082015250565b7f536965206d75657373656e2065696e2050726f66696c20616c7320496872205360008201527f74616e6461726470726f66696c20617573776165686c656e0000000000000000602082015250565b7f43616e6e6f74207061737320616e20656d70747920696d616765206861736800600082015250565b7f4552433732313a2062616c616e636520717565727920666f7220746865207a6560008201527f726f206164647265737300000000000000000000000000000000000000000000602082015250565b7f4552433732313a206f776e657220717565727920666f72206e6f6e657869737460008201527f656e7420746f6b656e0000000000000000000000000000000000000000000000602082015250565b7f45524337323155524953746f726167653a2055524920736574206f66206e6f6e60008201527f6578697374656e7420746f6b656e000000000000000000000000000000000000602082015250565b7f496e76616c696420706f73742069640000000000000000000000000000000000600082015250565b7f4552433732313a206d696e7420746f20746865207a65726f2061646472657373600082015250565b7f45524337323155524953746f726167653a2055524920717565727920666f722060008201527f6e6f6e6578697374656e7420746f6b656e000000000000000000000000000000602082015250565b7f4552433732313a20617070726f76656420717565727920666f72206e6f6e657860008201527f697374656e7420746f6b656e0000000000000000000000000000000000000000602082015250565b7f43616e6e6f74207061737320616e20656d707479206861736800000000000000600082015250565b7f4552433732314d657461646174613a2055524920717565727920666f72206e6f60008201527f6e6578697374656e7420746f6b656e0000000000000000000000000000000000602082015250565b7f4552433732313a20617070726f76616c20746f2063757272656e74206f776e6560008201527f7200000000000000000000000000000000000000000000000000000000000000602082015250565b7f43616e6e6f742074697020796f7572206f776e20706f73740000000000000000600082015250565b7f4552433732313a207472616e736665722063616c6c6572206973206e6f74206f60008201527f776e6572206e6f7220617070726f766564000000000000000000000000000000602082015250565b7f43616e6e6f74207061737320616e20656d7074792066696c6520747970650000600082015250565b61486481613f9b565b811461486f57600080fd5b50565b61487b81613fbf565b811461488657600080fd5b50565b61489281613fcb565b811461489d57600080fd5b50565b6148a981614017565b81146148b457600080fd5b5056fea264697066735822122071b5f92846cb924e92eb72bd067ba39f473b9d0311bdf1d169f2bf3898679e0164736f6c63430008040033",
  "linkReferences": {},
  "deployedLinkReferences": {}
}